{
  "_format": "hh-sol-artifact-1",
  "contractName": "Escrow",
  "sourceName": "contracts/Escrow.sol",
  "abi": [
    {
      "inputs": [
        {
          "internalType": "address",
          "name": "_payee",
          "type": "address"
        },
        {
          "internalType": "address",
          "name": "_escrowAgent",
          "type": "address"
        }
      ],
      "stateMutability": "payable",
      "type": "constructor"
    },
    {
      "anonymous": false,
      "inputs": [
        {
          "indexed": false,
          "internalType": "uint256",
          "name": "amount",
          "type": "uint256"
        }
      ],
      "name": "FundsDeposited",
      "type": "event"
    },
    {
      "anonymous": false,
      "inputs": [
        {
          "indexed": false,
          "internalType": "uint256",
          "name": "amount",
          "type": "uint256"
        }
      ],
      "name": "FundsReleased",
      "type": "event"
    },
    {
      "anonymous": false,
      "inputs": [
        {
          "indexed": false,
          "internalType": "uint256",
          "name": "amount",
          "type": "uint256"
        }
      ],
      "name": "RefundIssued",
      "type": "event"
    },
    {
      "inputs": [],
      "name": "amount",
      "outputs": [
        {
          "internalType": "uint256",
          "name": "",
          "type": "uint256"
        }
      ],
      "stateMutability": "view",
      "type": "function"
    },
    {
      "inputs": [],
      "name": "currentState",
      "outputs": [
        {
          "internalType": "enum Escrow.EscrowState",
          "name": "",
          "type": "uint8"
        }
      ],
      "stateMutability": "view",
      "type": "function"
    },
    {
      "inputs": [],
      "name": "escrowAgent",
      "outputs": [
        {
          "internalType": "address",
          "name": "",
          "type": "address"
        }
      ],
      "stateMutability": "view",
      "type": "function"
    },
    {
      "inputs": [],
      "name": "getBalance",
      "outputs": [
        {
          "internalType": "uint256",
          "name": "",
          "type": "uint256"
        }
      ],
      "stateMutability": "view",
      "type": "function"
    },
    {
      "inputs": [],
      "name": "payee",
      "outputs": [
        {
          "internalType": "address",
          "name": "",
          "type": "address"
        }
      ],
      "stateMutability": "view",
      "type": "function"
    },
    {
      "inputs": [],
      "name": "payer",
      "outputs": [
        {
          "internalType": "address",
          "name": "",
          "type": "address"
        }
      ],
      "stateMutability": "view",
      "type": "function"
    },
    {
      "inputs": [],
      "name": "refund",
      "outputs": [],
      "stateMutability": "nonpayable",
      "type": "function"
    },
    {
      "inputs": [],
      "name": "releaseFunds",
      "outputs": [],
      "stateMutability": "nonpayable",
      "type": "function"
    }
  ],
  "bytecode": "0x60e0604052604051610f10380380610f10833981810160405281019061002591906102b7565b600073ffffffffffffffffffffffffffffffffffffffff168273ffffffffffffffffffffffffffffffffffffffff1603610094576040517f08c379a000000000000000000000000000000000000000000000000000000000815260040161008b90610354565b60405180910390fd5b600073ffffffffffffffffffffffffffffffffffffffff168173ffffffffffffffffffffffffffffffffffffffff1603610103576040517f08c379a00000000000000000000000000000000000000000000000000000000081526004016100fa906103c0565b60405180910390fd5b60003411610146576040517f08c379a000000000000000000000000000000000000000000000000000000000815260040161013d90610452565b60405180910390fd5b3373ffffffffffffffffffffffffffffffffffffffff1660808173ffffffffffffffffffffffffffffffffffffffff16815250508173ffffffffffffffffffffffffffffffffffffffff1660a08173ffffffffffffffffffffffffffffffffffffffff16815250508073ffffffffffffffffffffffffffffffffffffffff1660c08173ffffffffffffffffffffffffffffffffffffffff1681525050346000819055506000600160006101000a81548160ff0219169083600281111561020f5761020e610472565b5b02179055507f7cb5d45c1071f219bd2da1ea101758715bd52f23f2a707f2d9a0387dea18d90660005460405161024591906104ba565b60405180910390a150506104d5565b600080fd5b600073ffffffffffffffffffffffffffffffffffffffff82169050919050565b600061028482610259565b9050919050565b61029481610279565b811461029f57600080fd5b50565b6000815190506102b18161028b565b92915050565b600080604083850312156102ce576102cd610254565b5b60006102dc858286016102a2565b92505060206102ed858286016102a2565b9150509250929050565b600082825260208201905092915050565b7f496e76616c696420706179656520616464726573730000000000000000000000600082015250565b600061033e6015836102f7565b915061034982610308565b602082019050919050565b6000602082019050818103600083015261036d81610331565b9050919050565b7f496e76616c696420657363726f77206167656e74206164647265737300000000600082015250565b60006103aa601c836102f7565b91506103b582610374565b602082019050919050565b600060208201905081810360008301526103d98161039d565b9050919050565b7f4d7573742073656e6420457468657220746f20696e697469616c697a6520746860008201527f6520636f6e747261637400000000000000000000000000000000000000000000602082015250565b600061043c602a836102f7565b9150610447826103e0565b604082019050919050565b6000602082019050818103600083015261046b8161042f565b9050919050565b7f4e487b7100000000000000000000000000000000000000000000000000000000600052602160045260246000fd5b6000819050919050565b6104b4816104a1565b82525050565b60006020820190506104cf60008301846104ab565b92915050565b60805160a05160c0516109f061052060003960008181610196015281816103db0152610649015260008181610519015261062501526000818161017201526102d501526109f06000f3fe608060405234801561001057600080fd5b50600436106100885760003560e01c806369d895751161005b57806369d89575146100f1578063aa8c217c146100fb578063ae90b21314610119578063e1f6c0981461013757610088565b80630c3f6acf1461008d57806312065fe0146100ab578063123119cd146100c9578063590e1ae3146100e7575b600080fd5b610095610155565b6040516100a291906106e2565b60405180910390f35b6100b3610168565b6040516100c09190610716565b60405180910390f35b6100d1610170565b6040516100de9190610772565b60405180910390f35b6100ef610194565b005b6100f96103d9565b005b61010361061d565b6040516101109190610716565b60405180910390f35b610121610623565b60405161012e9190610772565b60405180910390f35b61013f610647565b60405161014c9190610772565b60405180910390f35b600160009054906101000a900460ff1681565b600047905090565b7f000000000000000000000000000000000000000000000000000000000000000081565b7f000000000000000000000000000000000000000000000000000000000000000073ffffffffffffffffffffffffffffffffffffffff163373ffffffffffffffffffffffffffffffffffffffff1614610222576040517f08c379a000000000000000000000000000000000000000000000000000000000815260040161021990610810565b60405180910390fd5b60008060028111156102375761023661066b565b5b600160009054906101000a900460ff1660028111156102595761025861066b565b5b14610299576040517f08c379a00000000000000000000000000000000000000000000000000000000081526004016102909061087c565b60405180910390fd5b600080549050600080819055506002600160006101000a81548160ff021916908360028111156102cc576102cb61066b565b5b021790555060007f000000000000000000000000000000000000000000000000000000000000000073ffffffffffffffffffffffffffffffffffffffff1682604051610317906108cd565b60006040518083038185875af1925050503d8060008114610354576040519150601f19603f3d011682016040523d82523d6000602084013e610359565b606091505b505090508061039d576040517f08c379a00000000000000000000000000000000000000000000000000000000081526004016103949061092e565b60405180910390fd5b7fbe39882973eff28580f04c2c5cdc775cd9865cffc8840773d131ab12471c9a62826040516103cc9190610716565b60405180910390a1505050565b7f000000000000000000000000000000000000000000000000000000000000000073ffffffffffffffffffffffffffffffffffffffff163373ffffffffffffffffffffffffffffffffffffffff1614610467576040517f08c379a000000000000000000000000000000000000000000000000000000000815260040161045e90610810565b60405180910390fd5b600080600281111561047c5761047b61066b565b5b600160009054906101000a900460ff16600281111561049e5761049d61066b565b5b146104de576040517f08c379a00000000000000000000000000000000000000000000000000000000081526004016104d59061087c565b60405180910390fd5b6000805490506000808190555060018060006101000a81548160ff021916908360028111156105105761050f61066b565b5b021790555060007f000000000000000000000000000000000000000000000000000000000000000073ffffffffffffffffffffffffffffffffffffffff168260405161055b906108cd565b60006040518083038185875af1925050503d8060008114610598576040519150601f19603f3d011682016040523d82523d6000602084013e61059d565b606091505b50509050806105e1576040517f08c379a00000000000000000000000000000000000000000000000000000000081526004016105d89061099a565b60405180910390fd5b7f952b264c8e0a06cddb4bbaa6d6af1d565145329fd95bbe72cb2b53942b2dc966826040516106109190610716565b60405180910390a1505050565b60005481565b7f000000000000000000000000000000000000000000000000000000000000000081565b7f000000000000000000000000000000000000000000000000000000000000000081565b7f4e487b7100000000000000000000000000000000000000000000000000000000600052602160045260246000fd5b600381106106ab576106aa61066b565b5b50565b60008190506106bc8261069a565b919050565b60006106cc826106ae565b9050919050565b6106dc816106c1565b82525050565b60006020820190506106f760008301846106d3565b92915050565b6000819050919050565b610710816106fd565b82525050565b600060208201905061072b6000830184610707565b92915050565b600073ffffffffffffffffffffffffffffffffffffffff82169050919050565b600061075c82610731565b9050919050565b61076c81610751565b82525050565b60006020820190506107876000830184610763565b92915050565b600082825260208201905092915050565b7f4f6e6c7920657363726f77206167656e742063616e20706572666f726d20746860008201527f697320616374696f6e0000000000000000000000000000000000000000000000602082015250565b60006107fa60298361078d565b91506108058261079e565b604082019050919050565b60006020820190508181036000830152610829816107ed565b9050919050565b7f496e76616c696420737461746520666f72207468697320616374696f6e000000600082015250565b6000610866601d8361078d565b915061087182610830565b602082019050919050565b6000602082019050818103600083015261089581610859565b9050919050565b600081905092915050565b50565b60006108b760008361089c565b91506108c2826108a7565b600082019050919050565b60006108d8826108aa565b9150819050919050565b7f526566756e6420746f207061796572206661696c656400000000000000000000600082015250565b600061091860168361078d565b9150610923826108e2565b602082019050919050565b600060208201905081810360008301526109478161090b565b9050919050565b7f5472616e7366657220746f207061796565206661696c65640000000000000000600082015250565b600061098460188361078d565b915061098f8261094e565b602082019050919050565b600060208201905081810360008301526109b381610977565b905091905056fea2646970667358221220c467a6318931ab65842fba9a3a0be94a16e27bb049951ff527279fd72991cb7e64736f6c634300081b0033",
  "linkReferences": {},
  "deployedLinkReferences": {}
}