{
  "contractName": "Escrow",
  "abi": [
    {
      "inputs": [
        {
          "internalType": "address",
          "name": "_payee",
          "type": "address"
        },
        {
          "internalType": "address",
          "name": "_escrowAgent",
          "type": "address"
        }
      ],
      "stateMutability": "payable",
      "type": "constructor"
    },
    {
      "anonymous": false,
      "inputs": [
        {
          "indexed": false,
          "internalType": "uint256",
          "name": "amount",
          "type": "uint256"
        }
      ],
      "name": "FundsDeposited",
      "type": "event"
    },
    {
      "anonymous": false,
      "inputs": [
        {
          "indexed": false,
          "internalType": "uint256",
          "name": "amount",
          "type": "uint256"
        }
      ],
      "name": "FundsReleased",
      "type": "event"
    },
    {
      "anonymous": false,
      "inputs": [
        {
          "indexed": false,
          "internalType": "uint256",
          "name": "amount",
          "type": "uint256"
        }
      ],
      "name": "RefundIssued",
      "type": "event"
    },
    {
      "inputs": [],
      "name": "amount",
      "outputs": [
        {
          "internalType": "uint256",
          "name": "",
          "type": "uint256"
        }
      ],
      "stateMutability": "view",
      "type": "function"
    },
    {
      "inputs": [],
      "name": "currentState",
      "outputs": [
        {
          "internalType": "enum Escrow.EscrowState",
          "name": "",
          "type": "uint8"
        }
      ],
      "stateMutability": "view",
      "type": "function"
    },
    {
      "inputs": [],
      "name": "escrowAgent",
      "outputs": [
        {
          "internalType": "address",
          "name": "",
          "type": "address"
        }
      ],
      "stateMutability": "view",
      "type": "function"
    },
    {
      "inputs": [],
      "name": "payee",
      "outputs": [
        {
          "internalType": "address",
          "name": "",
          "type": "address"
        }
      ],
      "stateMutability": "view",
      "type": "function"
    },
    {
      "inputs": [],
      "name": "payer",
      "outputs": [
        {
          "internalType": "address",
          "name": "",
          "type": "address"
        }
      ],
      "stateMutability": "view",
      "type": "function"
    },
    {
      "inputs": [],
      "name": "releaseFunds",
      "outputs": [],
      "stateMutability": "nonpayable",
      "type": "function"
    },
    {
      "inputs": [],
      "name": "refund",
      "outputs": [],
      "stateMutability": "nonpayable",
      "type": "function"
    },
    {
      "inputs": [],
      "name": "getBalance",
      "outputs": [
        {
          "internalType": "uint256",
          "name": "",
          "type": "uint256"
        }
      ],
      "stateMutability": "view",
      "type": "function"
    }
  ],
  "bytecode": "0x60e0604052604051610eb0380380610eb0833981810160405281019061002591906102ab565b5f73ffffffffffffffffffffffffffffffffffffffff168273ffffffffffffffffffffffffffffffffffffffff1603610093576040517f08c379a000000000000000000000000000000000000000000000000000000000815260040161008a90610343565b60405180910390fd5b5f73ffffffffffffffffffffffffffffffffffffffff168173ffffffffffffffffffffffffffffffffffffffff1603610101576040517f08c379a00000000000000000000000000000000000000000000000000000000081526004016100f8906103ab565b60405180910390fd5b5f3411610143576040517f08c379a000000000000000000000000000000000000000000000000000000000815260040161013a90610439565b60405180910390fd5b3373ffffffffffffffffffffffffffffffffffffffff1660808173ffffffffffffffffffffffffffffffffffffffff16815250508173ffffffffffffffffffffffffffffffffffffffff1660a08173ffffffffffffffffffffffffffffffffffffffff16815250508073ffffffffffffffffffffffffffffffffffffffff1660c08173ffffffffffffffffffffffffffffffffffffffff1681525050345f819055505f60015f6101000a81548160ff0219169083600281111561020957610208610457565b5b02179055507f7cb5d45c1071f219bd2da1ea101758715bd52f23f2a707f2d9a0387dea18d9065f5460405161023e919061049c565b60405180910390a150506104b5565b5f5ffd5b5f73ffffffffffffffffffffffffffffffffffffffff82169050919050565b5f61027a82610251565b9050919050565b61028a81610270565b8114610294575f5ffd5b50565b5f815190506102a581610281565b92915050565b5f5f604083850312156102c1576102c061024d565b5b5f6102ce85828601610297565b92505060206102df85828601610297565b9150509250929050565b5f82825260208201905092915050565b7f496e76616c6964207061796565206164647265737300000000000000000000005f82015250565b5f61032d6015836102e9565b9150610338826102f9565b602082019050919050565b5f6020820190508181035f83015261035a81610321565b9050919050565b7f496e76616c696420657363726f77206167656e742061646472657373000000005f82015250565b5f610395601c836102e9565b91506103a082610361565b602082019050919050565b5f6020820190508181035f8301526103c281610389565b9050919050565b7f4d7573742073656e6420457468657220746f20696e697469616c697a652074685f8201527f6520636f6e747261637400000000000000000000000000000000000000000000602082015250565b5f610423602a836102e9565b915061042e826103c9565b604082019050919050565b5f6020820190508181035f83015261045081610417565b9050919050565b7f4e487b71000000000000000000000000000000000000000000000000000000005f52602160045260245ffd5b5f819050919050565b61049681610484565b82525050565b5f6020820190506104af5f83018461048d565b92915050565b60805160a05160c0516109b56104fb5f395f8181610191015281816103cd015261063101525f8181610505015261060d01525f818161016d01526102ca01526109b55ff3fe608060405234801561000f575f5ffd5b5060043610610086575f3560e01c806369d895751161005957806369d89575146100ee578063aa8c217c146100f8578063ae90b21314610116578063e1f6c0981461013457610086565b80630c3f6acf1461008a57806312065fe0146100a8578063123119cd146100c6578063590e1ae3146100e4575b5f5ffd5b610092610152565b60405161009f91906106c6565b60405180910390f35b6100b0610164565b6040516100bd91906106f7565b60405180910390f35b6100ce61016b565b6040516100db919061074f565b60405180910390f35b6100ec61018f565b005b6100f66103cb565b005b610100610606565b60405161010d91906106f7565b60405180910390f35b61011e61060b565b60405161012b919061074f565b60405180910390f35b61013c61062f565b604051610149919061074f565b60405180910390f35b60015f9054906101000a900460ff1681565b5f47905090565b7f000000000000000000000000000000000000000000000000000000000000000081565b7f000000000000000000000000000000000000000000000000000000000000000073ffffffffffffffffffffffffffffffffffffffff163373ffffffffffffffffffffffffffffffffffffffff161461021d576040517f08c379a0000000000000000000000000000000000000000000000000000000008152600401610214906107e8565b60405180910390fd5b5f80600281111561023157610230610653565b5b60015f9054906101000a900460ff16600281111561025257610251610653565b5b14610292576040517f08c379a000000000000000000000000000000000000000000000000000000000815260040161028990610850565b60405180910390fd5b5f5f5490505f5f81905550600260015f6101000a81548160ff021916908360028111156102c2576102c1610653565b5b02179055505f7f000000000000000000000000000000000000000000000000000000000000000073ffffffffffffffffffffffffffffffffffffffff168260405161030c9061089b565b5f6040518083038185875af1925050503d805f8114610346576040519150601f19603f3d011682016040523d82523d5f602084013e61034b565b606091505b505090508061038f576040517f08c379a0000000000000000000000000000000000000000000000000000000008152600401610386906108f9565b60405180910390fd5b7fbe39882973eff28580f04c2c5cdc775cd9865cffc8840773d131ab12471c9a62826040516103be91906106f7565b60405180910390a1505050565b7f000000000000000000000000000000000000000000000000000000000000000073ffffffffffffffffffffffffffffffffffffffff163373ffffffffffffffffffffffffffffffffffffffff1614610459576040517f08c379a0000000000000000000000000000000000000000000000000000000008152600401610450906107e8565b60405180910390fd5b5f80600281111561046d5761046c610653565b5b60015f9054906101000a900460ff16600281111561048e5761048d610653565b5b146104ce576040517f08c379a00000000000000000000000000000000000000000000000000000000081526004016104c590610850565b60405180910390fd5b5f5f5490505f5f819055506001805f6101000a81548160ff021916908360028111156104fd576104fc610653565b5b02179055505f7f000000000000000000000000000000000000000000000000000000000000000073ffffffffffffffffffffffffffffffffffffffff16826040516105479061089b565b5f6040518083038185875af1925050503d805f8114610581576040519150601f19603f3d011682016040523d82523d5f602084013e610586565b606091505b50509050806105ca576040517f08c379a00000000000000000000000000000000000000000000000000000000081526004016105c190610961565b60405180910390fd5b7f952b264c8e0a06cddb4bbaa6d6af1d565145329fd95bbe72cb2b53942b2dc966826040516105f991906106f7565b60405180910390a1505050565b5f5481565b7f000000000000000000000000000000000000000000000000000000000000000081565b7f000000000000000000000000000000000000000000000000000000000000000081565b7f4e487b71000000000000000000000000000000000000000000000000000000005f52602160045260245ffd5b6003811061069157610690610653565b5b50565b5f8190506106a182610680565b919050565b5f6106b082610694565b9050919050565b6106c0816106a6565b82525050565b5f6020820190506106d95f8301846106b7565b92915050565b5f819050919050565b6106f1816106df565b82525050565b5f60208201905061070a5f8301846106e8565b92915050565b5f73ffffffffffffffffffffffffffffffffffffffff82169050919050565b5f61073982610710565b9050919050565b6107498161072f565b82525050565b5f6020820190506107625f830184610740565b92915050565b5f82825260208201905092915050565b7f4f6e6c7920657363726f77206167656e742063616e20706572666f726d2074685f8201527f697320616374696f6e0000000000000000000000000000000000000000000000602082015250565b5f6107d2602983610768565b91506107dd82610778565b604082019050919050565b5f6020820190508181035f8301526107ff816107c6565b9050919050565b7f496e76616c696420737461746520666f72207468697320616374696f6e0000005f82015250565b5f61083a601d83610768565b915061084582610806565b602082019050919050565b5f6020820190508181035f8301526108678161082e565b9050919050565b5f81905092915050565b50565b5f6108865f8361086e565b915061089182610878565b5f82019050919050565b5f6108a58261087b565b9150819050919050565b7f526566756e6420746f207061796572206661696c6564000000000000000000005f82015250565b5f6108e3601683610768565b91506108ee826108af565b602082019050919050565b5f6020820190508181035f830152610910816108d7565b9050919050565b7f5472616e7366657220746f207061796565206661696c656400000000000000005f82015250565b5f61094b601883610768565b915061095682610917565b602082019050919050565b5f6020820190508181035f8301526109788161093f565b905091905056fea26469706673582212209acc8882a7199a62d4547f8e234943aac701876effbbcb9c2d63240b9c21042864736f6c634300081b0033",
  "immutableReferences": {
    "3": [
      {
        "length": 32,
        "start": 365
      },
      {
        "length": 32,
        "start": 714
      }
    ],
    "5": [
      {
        "length": 32,
        "start": 1285
      },
      {
        "length": 32,
        "start": 1549
      }
    ],
    "7": [
      {
        "length": 32,
        "start": 401
      },
      {
        "length": 32,
        "start": 973
      },
      {
        "length": 32,
        "start": 1585
      }
    ]
  },
  "source": "// SPDX-License-Identifier: MIT\r\npragma solidity ^0.8.27;\r\n\r\ncontract Escrow {\r\n    address public immutable payer;\r\n    address public immutable payee;\r\n    address public immutable escrowAgent;\r\n    uint256 public amount;\r\n\r\n    enum EscrowState {\r\n        AWAITING_RELEASE,\r\n        COMPLETE,\r\n        REFUNDED\r\n    }\r\n    EscrowState public currentState;\r\n\r\n    event FundsDeposited(uint256 amount);\r\n    event FundsReleased(uint256 amount);\r\n    event RefundIssued(uint256 amount);\r\n\r\n    modifier onlyEscrowAgent() {\r\n        require(\r\n            msg.sender == escrowAgent,\r\n            \"Only escrow agent can perform this action\"\r\n        );\r\n        _;\r\n    }\r\n\r\n    modifier inState(EscrowState expectedState) {\r\n        require(currentState == expectedState, \"Invalid state for this action\");\r\n        _;\r\n    }\r\n\r\n    constructor(address _payee, address _escrowAgent) payable {\r\n        require(_payee != address(0), \"Invalid payee address\");\r\n        require(_escrowAgent != address(0), \"Invalid escrow agent address\");\r\n        require(msg.value > 0, \"Must send Ether to initialize the contract\");\r\n\r\n        payer = msg.sender;\r\n        payee = _payee;\r\n        escrowAgent = _escrowAgent;\r\n        amount = msg.value;\r\n        currentState = EscrowState.AWAITING_RELEASE;\r\n\r\n        emit FundsDeposited(amount);\r\n    }\r\n\r\n    function releaseFunds()\r\n        external\r\n        onlyEscrowAgent\r\n        inState(EscrowState.AWAITING_RELEASE)\r\n    {\r\n        // Evitamos mltiples escrituras al almacenamiento\r\n        uint256 paymentAmount = amount;\r\n        amount = 0; // Actualizamos antes de la interaccin externa para prevenir reentrancia\r\n        currentState = EscrowState.COMPLETE;\r\n\r\n        (bool success, ) = payee.call{value: paymentAmount}(\"\");\r\n        require(success, \"Transfer to payee failed\");\r\n\r\n        emit FundsReleased(paymentAmount);\r\n    }\r\n\r\n    function refund()\r\n        external\r\n        onlyEscrowAgent\r\n        inState(EscrowState.AWAITING_RELEASE)\r\n    {\r\n        // Evitamos mltiples escrituras al almacenamiento\r\n        uint256 refundAmount = amount;\r\n        amount = 0; // Actualizamos antes de la interaccin externa para prevenir reentrancia\r\n        currentState = EscrowState.REFUNDED;\r\n\r\n        (bool success, ) = payer.call{value: refundAmount}(\"\");\r\n        require(success, \"Refund to payer failed\");\r\n\r\n        emit RefundIssued(refundAmount);\r\n    }\r\n\r\n    function getBalance() external view returns (uint256) {\r\n        return address(this).balance;\r\n    }\r\n}\r\n",
  "sourcePath": "D:\\workspaceVSC\\Escrow-smartcontract\\contracts\\Escrow.sol",
  "compiler": {
    "name": "solc",
    "version": "0.8.27+commit.40a35a09.Emscripten.clang"
  },
  "schemaVersion": "3.4.16",
  "updatedAt": "2024-10-10T20:35:16.454Z",
  "devdoc": {
    "kind": "dev",
    "methods": {},
    "version": 1
  },
  "userdoc": {
    "kind": "user",
    "methods": {},
    "version": 1
  }
}